:0400000030EF0BF0E2
:1000080000C01BF001C01AF002C019F003C018F0BC
:1000180004C017F005C016F00BC015F0E1CF22F0B0
:10002800E2CF23F0E9CF20F0EACF21F0F5CF1FF09F
:10003800F8CF1CF0F7CF1DF0F6CF1EF08CEC0AF0CD
:100048001FC0F5FF1CC0F8FF1DC0F7FF1EC0F6FF5C
:100058001BC000F01AC001F019C002F018C003F06C
:1000680017C004F016C005F015C00BF020C0E9FF5A
:0E00780021C0EAFF22C0E1FF23C0E2FF110019
:1000860081C04CF082C04DF083C050F084C051F066
:10009600800E00018511006E008000C04FF0120036
:1000A600000E056E040E066E81C003F0000E046E8F
:1000B60003360436039003360436039082C000F0FC
:1000C600000E016E003601360090005003260150E6
:1000D600042203C001F004C002F00136019002368A
:1000E60001360190023601C003F002C004F004326A
:1000F6000332049E04BC048E04320332049E04BC04
:10010600048E03C000F004C001F0003600900136F2
:10011600003600900136055000260650012200C028
:1001260005F001C006F000C0E1FF01C0E2FFE69E57
:1001360000018251000A12E181C000F0000E016E3A
:10014600003600900136600E0024E16E000E01209C
:10015600E26E05C0E6FF06C0E6FF11D081C000F0E2
:10016600000E016E003600900136520E0024E16E3C
:10017600000E0120E26E05C0E6FF06C0E6FF05C0E0
:10018600E1FF06C0E2FFE69C040E0524E16E000EC8
:080196000620E26EE68C120067
:0E019E00800E00018111006E00C04FF01200B3
:1001AC0081C04CF082C04DF083C04EF084C050F042
:1001BC0085C051F0800E00018611006E00C04FF01A
:0201CC0012001F
:1001CE0020C401F01F0E01160150010A01E08BD070
:1001DE0004012451000A01E086D02151060A38E1BB
:1001EE002DD02D50010A13E11A0E0001816F170E4A
:1001FE00826F000E836F120E8127000E82238323DF
:10020E00090E846F000E856F400E866FC8DF20D0FA
:10021E002D50010A0EE10001430E816F170E826F01
:10022E00000E836F210E846F000E856F400E866F59
:10023E00B6DF0ED00001816BABDF0AD00401235173
:10024E00210ACFE02351220AE3E02351230AF2E0F0
:10025E0020C401F0600E0116050E006E005004E081
:10026E000132019EFF0FFBD70150010A01E03BD086
:10027E0027D039D038D0320E0001816F000E826F38
:10028E00010E836F000E846F400E856FF5DE2BD04E
:10029E000001816B7DDF23C432F025D00001310EC9
:1002AE00816F000E826F010E836F000E846F856B5F
:1002BE00E3DE19D00001816B6BDF22C431F013D065
:1002CE0004012151010AD5E02151090AD3E021513F
:1002DE00020AD1E021510A0ADBE02151030ADEE0D5
:0802EE0021510B0AE7E01200A8
:1002F60000017D51000A12E07CC000F0000E016E84
:10030600003600900136520E0024E96E000E0120E0
:10031600EA6EEECF04F0EECF05F011D07CC000F00F
:10032600000E016E003600900136600E0024E96E64
:10033600000E0120EA6EEECF04F0EECF05F0020EBD
:100346000424E16E000E0520E26E7EC0E6FF7FC04B
:10035600E6FF010E0424E16E000E0520E26E80C069
:10036600E6FF04C0E9FF05C0EAFFEECF00F004C0D7
:10037600E1FF05C0E2FF400E0014E66E04C0E9FF8F
:1003860005C0EAFFEECF00F004C0E1FF05C0E2FFC2
:10039600880E0010E66E7D51000A1BE07CC000F05E
:1003A600000E016E003600900136520E0024026ED9
:1003B600000E0120036E02C0E9FF03C0EAFF040E2F
:1003C600EE18006E02C0E1FF03C0E2FF00C0E6FFC8
:1003D6001AD07CC000F0000E016E00360090013687
:1003E600600E0024026E000E0120036E02C0E9FFBB
:1003F60003C0EAFF040EEE18006E02C0E1FF03C060
:10040600E2FF00C0E6FF04C000F005C001F01200E4
:10041600700EE16E0F0EE26E00017C51E126D8B03F
:10042600E22A7DC0E6FF7DA504D07CC081F0826B08
:1004360037DE7DA305D07CC081F0010E826F30DEF1
:020446001200A2
:100448002E5215E0010E00017C6F1E0E7D6FDFDF5E
:10045800010E7C6F7D6B28C07EF029C07FF0400EB6
:10046800806F45DF00C048F001C049F014D000019A
:10047800010E7C6F1E0E7D6FCADF010E7C6F7D6BD7
:1004880028C07EF029C07FF0400E806F30DF00C0AA
:0804980048F001C049F0120018
:0804A0002E5201E094DE12006F
:1004A8000B6A0A6A096A00500402F4CF09F0F3CF14
:1004B80008F001500502F4CF0BF0F3CF0AF000501A
:1004C8000502F3500926F4500A22E86A0B2201506B
:1004D8000402F3500926F4500A22E86A0B2208C0E5
:1004E80000F009C001F00AC002F00BC003F01200CE
:1004F80076C002F077C003F079C000F07AC001F04E
:10050800010E0001795F000E7A5B0050011009E0CE
:1005180002C0E1FF03C0E2FF78C0E6FF024A032AF7
:04052800EBD71200FB
:10052C000CD08CDF3CD03BD0B5DF39D038D037D0B5
:10053C0036D035D0000033D032D0000E0001771900
:10054C0002E1010E7619EDE0000E771902E1020EC0
:10055C007619E9E0000E771902E1030E7619E4E052
:10056C007751000A02E1730E7619E0E07751000A28
:10057C0002E1750E7619DBE07751000A02E1740E88
:10058C007619D6E077513F0A02E1FF0E7619D1E0D9
:10059C007751000A02E1720E7619CCE0CDD7010E2C
:0405AC00006E1200CB
:1005B0004F8E710E0001766F0F0E776F786B010E04
:1005C000796F000E7A6F98DF4A0E766F000E776FA4
:1005D000786B010E796F000E7A6F8EDF22C42DF0DA
:1005E0002D50000A03E1100E5F6E0FD0200E5F6EDB
:1005F000010E766F000E776F2D0E786F000E796FFB
:0C060000010E7A6F000E7B6F91DF12007C
:10060C0004012251010A0FE120C401F01F0E011652
:10061C000150000A08E14F8E2151030A03E1010E3B
:10062C00266E01D0266A2251000AD8A48BD020C491
:10063C0001F01F0E01160150020AD8A483D024C465
:10064C0001F00F0E01160150000AD8B47BD04F8E6A
:10065C0024BF16D024C403F00F0E031603C000F001
:10066C00000E016E003600900136600E0024E96E1B
:10067C00000E0120EA6EEECF04F0EECF05F015D09F
:10068C0024C403F00F0E031603C000F0000E016E1D
:10069C00003600900136520E0024E96E000E012047
:1006AC00EA6EEECF04F0EECF05F02151030A07E11C
:1006BC0004C0E1FF05C0E2FF840EE66E43D024C403
:1006CC0000F00F0E0016700E026E0F0E036E00502F
:1006DC000226D8B0032A02C0E9FF03C0EAFFFE0ECF
:1006EC00EE14006EEECF01F0FF0E011602C0E1FF1A
:1006FC0003C0E2FF00C0E6FF01C0E6FF24AF11D04B
:10070C0004C0E1FF05C0E2FFE66A040E0418006EA7
:10071C0000C004F004C0E1FF05C0E2FF400EE66E2D
:10072C0011D004C0E1FF05C0E2FF880EE66E040E96
:10073C000418006E00C004F004C0E1FF05C0E2FF25
:06074C00C80EE66E12006B
:100752000401286B296B42D04F8E28812650010A52
:10076200D8B4288350D04F8E4ED04F8E24BF16D08F
:1007720024C403F00F0E031603C000F0000E016E36
:10078200003600900136600E0024E96E000E012052
:10079200EA6EEECF04F0EECF05F015D024C403F0DC
:1007A2000F0E031603C000F0000E016E003600901B
:1007B2000136520E0024E96E000E0120EA6EEECFE1
:1007C20004F0EECF05F004C0E9FF05C0EAFFEECF6A
:1007D20001F001A402D0010E286F15D020C401F04F
:1007E2001F0E01160150000AB7E020C401F01F0ECF
:1007F20001160150010AB7E020C401F01F0E0116D4
:100802000150020AB2E04FAE07D0280E4C6E040E21
:0A0812004D6E4F80020E506E120072
:10081C0004012051800AD8A471D0C00E4F6E64D050
:10082C00640E006E170E016E000E026E00C04CF0CE
:10083C0001C04DF002C04EF0120E506E000E516E03
:10084C005DD0030E006E000E016E22C404F0000E8B
:10085C00056E24DE2A0E0024E96E000E0120EA6EDD
:10086C00EECF4CF0EECF4DF0EECF4EF0020E4C240E
:10087C00F66E000E4D20F76E000E4E20F86E09003D
:10088C00F5CF00F00900F5CF01F000C050F001C029
:10089C0051F034D0030E225D23E2030E006E000EE5
:1008AC00016E22C404F0000E056EF8DD560E002415
:1008BC00E96E000E0120EA6EEECF4CF0EECF4DF05B
:1008CC00EECF4EF04CC0F6FF4DC0F7FF4EC0F8FF18
:1008DC000900F5CF00F000C050F0000E516E01D0B1
:1008EC004F6A0CD04F6A0AD02351010A99E0235168
:0E08FC00020AA7E02351030ACDE0F4D7120050
:10090A00000E515C02E1080E505C10E250C003F088
:10091A0051C004F02750000A03E1010E276E05D0EA
:10092A002750010A02E1020E276E04D0080E036E58
:10093A00000E046E52C0E1FF53C0E2FFE69252C0BD
:10094A00E1FF53C0E2FFE69052C0E9FF53C0EAFF5D
:10095A00EECF00F052C0E1FF53C0E2FF0450001096
:10096A00E66E010E5224E16E000E5320E26E03C0C1
:10097A00E6FF0350505C006E04505158016E00C0EF
:10098A0050F001C051F0280E246E040E256E4FB0AF
:10099A002FD0035004102BE04CC0F6FF4DC0F7FFD8
:1009AA004EC0F8FF0900F5CF00F024C0E1FF25C0D2
:1009BA00E2FF00C0E6FF244A252A010E4C24006EFD
:1009CA00000E4D20016E000E4E20026E00C04CF04B
:1009DA0001C04DF002C04EF0010E035C006E000E25
:1009EA000458016E00C003F001C004F0D2D724D02D
:1009FA000350041021E04CC0E9FF4DC0EAFF24C0B7
:100A0A00E1FF25C0E2FFEECFE6FF244A252A010EC8
:100A1A004C24006E000E4D20016E00C04CF001C047
:100A2A004DF0010E035C006E000E0458016E00C00A
:0A0A3A0003F001C004F0DCD7120045
:100A44006D984FBE49D041AE28D0020E366E010ECD
:100A54005224E16E000E5320E26EE66A52C0E1FFBA
:100A640053C0E2FFC80EE66E010E3724E16E000E9D
:100A74003820E26E080EE66E020E3724E16E000E98
:100A84003820E26E280EE66E040EE66E37C0E1FFF3
:100A940038C0E2FFC80EE66E1ED0010E3724E16EA8
:100AA400000E3820E26E080EE66E020E3724E16E68
:100AB400000E3820E26E200EE66E040EE66E37C09D
:100AC400E1FF38C0E2FF8C0EE66E52C0E1FF53C076
:100AD400E2FF840EE66E7DD041BE7BD0040120AFE0
:100AE40051D05150275D02E15050265D04E226C4E6
:100AF40050F027C451F007DF010E366E010E372483
:100B0400E16E000E3820E26E080EE66E020E372407
:100B1400E16E000E3820E26E200EE66E040EE66EE4
:100B240037C0E1FF38C0E2FF800EE66E356A010E81
:100B34002F24E16E000E3020E26E080EE66E020EE7
:100B44002F24E16E000E3020E26E200EE66E040EBD
:100B5400E66E2FC0E1FF30C0E2FF840EE66E010EA8
:100B6400356E020E5224E16E000E5320E26E280E02
:100B7400E66E040EE66E52C0E1FF53C0E2FFC80EFB
:100B8400E66E27D0020E366E010E5224E16E000E80
:100B94005320E26EE66A52C0E1FF53C0E2FFC80E82
:100BA400E66E010E3724E16E000E3820E26E080E68
:100BB400E66E020E3724E16E000E3820E26E280E37
:100BC400E66E040EE66E37C0E1FF38C0E2FFC80EE1
:040BD400E66E1200B7
:100BD800366A52C0E1FF53C0E2FFE66A040E5218BB
:100BE800E16E53C0E2FF000EE21AE66A41BE419E82
:020BF8001200E9
:100BFA0020C401F0600E0116050E006E005004E0DC
:100C0A000132019EFF0FFBD70150000A01E062D0BA
:100C1A003ED04F8E080E5F6E5DD0FBDD5BD0C3DC2D
:100C2A0059D02D0E4C6E000E4D6E4F80010E506E37
:100C3A004F8E50D089DD4ED0E4DC4CD04A0E006E87
:100C4A00000E016E24510026D8B0012A00C04CF0D3
:100C5A0001C04DF04F80010E506E4F8E3BD04F8E2B
:100C6A004A0EE16E000EE26E2451E126D8B0E22A65
:100C7A0022C4E6FF2FD0020E0001766F000E776FB6
:100C8A00786B796B7A6B7B6B4CDC24D023D00401B4
:100C9A002151050ABEE02151060ABFE02151090A85
:100CAA00BEE02151080ABDE02151000AC3E02151EA
:100CBA00010AC2E02151030ABFE021510A0ABEE03B
:100CCA0021510B0ACCE02151070AD5E021510C0A27
:060CDA00DDE0DCD7120092
:100CE000010E2F24E96E000E3020EA6EEECF00F0E8
:100CF00000C002F0000E435C02E10250425C03E2DD
:100D000042C002F00AD00250425C006E000E43580E
:100D1000016E00C042F001C043F0036A0250035C60
:100D20001CE2280EE96E040EEA6E0350E926D8B0E4
:100D3000EA2AEECF00F03FC0E1FF40C0E2FF00C072
:100D4000E6FF010E3F24006E000E4020016E00C041
:100D50003FF001C040F0032AE1D7000E006E43507F
:100D6000005C02E14250000828E2010E3724E16EE7
:100D7000000E3820E26E080EE66E020E3724E16E99
:100D8000000E3820E26E280EE66E040EE66E2FC0CE
:100D9000E9FF30C0EAFFEECF00F000BC07D037C05B
:100DA000E1FF38C0E2FFC80EE66E06D037C0E1FFB3
:100DB00038C0E2FF880EE66E19D0010E3724E16ECE
:100DC000000E3820E26E080EE66E020E3724E16E49
:100DD000000E3820E26E200EE66E040EE66E37C07E
:0E0DE000E1FF38C0E2FF840EE66E419E120075
:100DEE003650020A02E175DF1ED0EFDE3550000AE2
:100DFE0019E1010E3724E16E000E3820E26E080E66
:100E0E00E66E020E3724E16E000E3820E26E200EE2
:100E1E00E66E040EE66E37C0E1FF38C0E2FF8C0EC0
:080E2E00E66E01D0356A1200E6
:100E360052C0E9FF53C0EAFFEECF00F000AE05D086
:100E460052C0E1FF53C0E2FFE66A276A366A506A7B
:100E5600516A4F6ACFDE030E0001766F000E776F80
:100E6600786B796B7A6B7B6B96EC02F0E8DD12009F
:100E760052C0E9FF53C0EAFFEECF00F0000E00BCFF
:100E8600010E0001756F040E5218006E00C052F07C
:100E96005F50080A0AE122C46EFF6E50000803E2A2
:100EA600100E5F6E02D0040E5F6E3650010A2BE103
:100EB600020E5224E16E000E5320E26E280E006EE2
:100EC600040E016E00C0E6FF01C0E6FF1BDD2750E1
:100ED600020A07E152C0E1FF53C0E2FF840EE66E4C
:100EE60011D000017551000A07E152C0E1FF53C05D
:100EF600E2FFC80EE66E06D052C0E1FF53C0E2FF25
:0A0F0600880EE66E01D065DE1200D1
:0A0F1000D08EA28AA08AF28E120091
:100F1A00000E00016F1902E1000E6E1902E1016A6A
:100F2A0009D06EC0E9FF6FC0EAFFEECF00F0016A98
:0A0F3A0000BE012A01C000F0120001
:100F44006EC002F06FC003F071C000F072C001F017
:100F5400010E0001715F000E725B0050011009E088
:100F640002C0E1FF03C0E2FF70C0E6FF024A032AA9
:040F7400EBD71200A5
:100F78001A0E2A6E170E2B6E000E2C6E7E0E566EF3
:100F8800170E576E000E586E760E596E170E5A6E63
:100F9800000E5B6EEE0E5C6E160E5D6E000E5E6EE3
:020FA800120035
:0E0FAA00160E6F6E9F0E6B6E7B0E696E120040
:100FB80000016F51000A12E06EC000F0000E016ED1
:100FC800003600900136520E0024E96E000E012012
:100FD800EA6EEECF04F0EECF05F011D06EC000F04F
:100FE800000E016E003600900136600E0024E96E96
:100FF800000E0120EA6EEECF04F0EECF05F0020EEF
:101008000424E16E000E0520E26E70C0E6FF71C098
:10101800E6FF010E0424E16E000E0520E26E72C0A8
:10102800E6FF04C0E9FF05C0EAFFEECF00F004C008
:10103800E1FF05C0E2FF400E0014E66E04C0E9FFC0
:1010480005C0EAFFEECF00F004C0E1FF05C0E2FFF3
:10105800880E0010E66E6F51000A1BE06EC000F0AB
:10106800000E016E003600900136520E0024026E0A
:10107800000E0120036E02C0E9FF03C0EAFF040E60
:10108800EE18006E02C0E1FF03C0E2FF00C0E6FFF9
:101098001AD06EC000F0000E016E003600900136C6
:1010A800600E0024026E000E0120036E02C0E9FFEC
:1010B80003C0EAFF040EEE18006E02C0E1FF03C091
:1010C800E2FF00C0E6FF04C000F005C001F0120016
:1010D8004FDF486A496A3D6A3E6A6A6A686A61DF40
:1010E8006D8C6E6A710E00016E6F0F0E6F6F706BF4
:1010F800010E716F000E726F21DF6D9C696B080E17
:10110800695D16E269C000F0000E016E00360090BD
:101118000136003600900136000E0024E16E040E00
:101128000120E26EE66AE66AE66AE66A692BE7D7B4
:10113800160E706E68A603D0F70E6816FBD74F6AB6
:10114800416A426A436A6D98080E526E040E536EE5
:061158002D6A5F6A12001F
:04115E00A19A120040
:10116200200E5F5C03E36DB201D002D0006A23D08F
:1011720048C06EF049C06FF0CFDE00521BE1010E95
:101182004824E96E000E4920EA6EEECF00F000C05E
:101192006DF06CC06EF06F6B69C070F06AC071F078
:1011A2006BC072F008DF00C048F001C049F06DC0AA
:0811B20000F001D0006A1200F8
:1011BA00200E5F5C03E36DB201D002D0006A33D027
:1011CA003DC06EF03EC06FF0A3DE00522BE16CC052
:1011DA006EF0010E6F6F69C070F06AC071F06BC07B
:1011EA0072F0E5DE00C03DF001C03EF0396A3A6AAD
:1011FA003B6A3C6A3DC06EF03EC06FF089DE005229
:10120A0008E039503A103B103C1002E0006A0BD05B
:10121A00F1D7010E3D24E96E000E3E20EA6EEECFB4
:08122A0000F001D0006A12007F
:101232005F50000A0AE16D6A696AB6DE68DE6DB661
:0C12420002D06D86FCD7010E5F6E12001A
:10124E006984EF0E68166D82750E0001766F000EC2
:10125E00776F786B796B7A6B7B6B96EC02F0120082
:10126E0070A019D02FC0E9FF30C0EAFFEECF01F019
:10127E000150800A0FE152C0E9FF53C0EAFFEECFE2
:10128E0001F00150840A06E12FC0E1FF30C0E2FFF9
:0C129E008C0EE66E7090DF0E68161200D9
:1012AA00FD0E4B14016E026AFF0E0216000E0218A2
:1012BA0002E1000E01186CE17E0E4B14016E01C0B2
:1012CA0003F00332039E03C000F0000E016E0036E5
:1012DA0000900136003600900136000E0024026E9E
:1012EA00040E0120036E02C02FF003C030F002C0CA
:1012FA0037F003C038F0040E3718006E00C037F01C
:10130A0002C0E9FF03C0EAFFEECF00F000C001F01F
:10131A003C0E01160132019E0132019E01500D0A56
:10132A0035E1020E2F24E96E000E3020EA6EEECF70
:10133A0001F0EECF02F00250040A02E1280E011871
:10134A0023E1020E2F24E16E000E3020E26E200E01
:10135A00E66E040EE66E0001746B080E745D14E20C
:10136A00200EE16E040EE26E7451E126D8B0E22A34
:10137A00280EE96E040EEA6E7451E926D8B0EA2AFC
:10138A00EECFE6FF742BE9D751DD01D02BDD0DD06E
:10139A00FD0E4B14016E026AFF0E0216000E0218B1
:0C13AA0002E1040E011801E161DD1200F7
:1013B600740E0001766F000E776F786B796B7A6B1F
:1013C6007B6B96EC02F06D92699468A403D0FB0ED9
:0613D6006816FBD71200AF
:1013DC00CDDD486A496A3D6A3E6A6A6A686ADFDD41
:1013EC006D8C6E6A710E0001766F0F0E776F786BD5
:1013FC00010E796F000E7A6F7CEC02F06D9C746BB1
:10140C00080E745D16E274C000F0000E016E00361A
:10141C0000900136003600900136000E0024E16E7B
:10142C00040E0120E26EE66AE66AE66AE66A742B4E
:10143C00E7D7160E706E68A603D0F70E6816FBD7AA
:10144C004F6A416A426A436A6D98080E526E040EE6
:08145C00536E2D6A5F6A120055
:0614640065C083FF1200C9
:10146A00000165B102D0828001D0829065B302D0BA
:10147A00848401D0849465B502D0849201D0848298
:0C148A0065B702D0848001D0849012006D
:10149600010E2E6E65C028F066C029F067C033F0D5
:1014A60068C034F016DE010E016E0150010A01E13A
:0414B600BDDE120085
:1014BA00F26AF16AF06A9D6AA06AFF0E926EFF0EE6
:1014CA00936EFE0E946E956A966A806A816A826A43
:0C14DA00836AF80E846E0A0EC16E1200C8
:1014E6000001656B81B802D0659901D0658981BA22
:1014F60002D0659B01D0658B81BC02D0659D01D071
:10150600658D81BE02D0658F01D0659F65C000F0F4
:021516001200C1
:101518005F50010A07E16DBA05D0686A6980698879
:10152800020E5F6E68A405D069A403D0FB0E68168E
:101538003EDF6DA202D00FDE78D068A018D069A077
:1015480016D048DF040E5F6E200E0401026F040EF1
:10155800036F080E016F000E0015006E00C000F446
:101568008C0E0011006E00C000F4FE0E681668A80C
:1015780005D069A803D067DEEF0E681668AC11D0F5
:1015880069AC0FD0730E0001766F000E776F786B21
:10159800796B010E7A6F000E7B6F96EC02F0BF0E2E
:1015A800681668AA03D069AA01D05DDE68A210D0C7
:1015B80069A20ED0FF0E0001766F3F0E776F786B31
:1015C800796B010E7A6F000E7B6F96EC02F06A6AF7
:1015D800040E5F5C02E2BFDD28D069A625D00001B9
:1015E800736B040E735D20E268A61AD06CCF4BF0C3
:1015F800F70E6816780E4B14016E0150000A02E1CE
:1016080050DE0DD0720E0001766F000E776F4B0E14
:10161800786F000E796F7A6B7B6B96EC02F001D0D5
:0C16280003D00001732BDDD796DD12000B
:1016340065C069F066C06AF067C06BF0010E000116
:061644006C6FB9DD12001D
:10164A0028C069F029C06AF0400E00016B6F010ED4
:06165A006C6F82DD12003E
:101660000D0E0B6EAF0E0C6EB60E0D6E0D2EFED760
:101670000C2EFCD70B2EFAD700001FDF000E000146
:10168000656F050E666F400E676F050E686F03DFAE
:10169000DCDF00522AE000C564F005010051780A41
:1016A00004E101C565F0DEDE20D000016451790A55
:1016B00012E119DF00C040F5010E0501416F400E37
:1016C0000001656F050E666F020E676FB3DF005293
:1016D00001E1F5D70AD0000164517A0A06E10F0E44
:0E16E000050101150001656FC0DED2D7FFD7EE
:1016EE002C0369006E0074006500720066006100D4
:1016FE007A005F00700072006F0067007200610078
:0C170E006D006100630069006F006E0058
:10171A0009022900010100803209040000020300C5
:10172A00000009210101000122210007058103406F
:09173A0000010705010340000154
:101743000600FF0901A10119012940150026FF0028
:1017530075089502810219012940750895029102C5
:01176300C0C5
:10176400120100020000000834120100010001020D
:02177400000172
:08177600080347004500440090
:04177E000403090453
:020000040030CA
:0E000000244E361EFF8381FF0FC00FE00F401D
:00000001FF
